:020000040800F2
:10000000C8AD0024A50300086DA70008039E0008E2
:1000100069A700085B0C000839F000080000000028
:10002000000000000000000000000000E5020008E1
:10003000A52200080000000041030008A5AF000849
:10004000BF030008BF030008BF030008BF03000888
:10005000BF030008BF030008BF030008BF03000878
:10006000BF030008BF030008BF030008291D0008E4
:10007000391D0008491D0008591D0008BF0300086C
:10008000BF030008BF030008BF030008692400087D
:10009000D9240008BF030008BF030008BF030008FD
:1000A000BF030008BF030008BF030008BF03000828
:1000B00075B10008BF030008BF030008BF030008B4
:1000C000BF030008BF030008BF030008BF03000808
:1000D00021AE000855C70008BF030008BF03000891
:1000E000BF030008BF03000800000000BF030008B2
:1000F000BF030008BF030008BF030008BF030008D8
:10010000BF030008BF030008BF030008BF030008C7
:10011000BF030008BF030008BF030008BF030008B7
:10012000BF030008BF030008BF030008BF030008A7
:10013000BF030008BF030008BF030008BF03000897
:1001400000000000000000000000000000000000AF
:10015000BF030008BF030008BF030008BF03000877
:10016000BF030008BF030008BF030008BF03000867
:10017000BF03000871A70008BF03000800000000CB
:10018000BF030008BF030008BF030008BF03000847
:10019000BF030008BF030008BF030008BF03000837
:1001A000BF030008BF030008BF03000800000000F1
:1001B000BF030008BF030008BF030008BF03000817
:1001C000BF030008BF03000800000000000000009B
:1001D0000000000000000000BF0300080000000055
:1001E000000000000000000000000000000000000F
:1001F0000000000000000000BF030008BF0300086B
:10020000BF030008BF03000800000000BF03000890
:10021000BF030008BF030008BF030008BF030008B6
:10022000BF03000800000000BF030008000000003A
:10023000BF030008BF03000800000000BF03000860
:10024000BF030008BF030008BF030008BF03000886
:10025000BF030008BF030008BF030008BF03000876
:10026000BF030008BF030008BF030008BF03000866
:10027000BF030008BF030008BF0300080000000020
:10028000BF030008BF030008BF030008BF03000846
:1002900000000000BF030008BF03000800000000CA
:1002A00000000000BF030008BF030008BF030008F0
:1002B000BF030008BF030008BF030008E9240008CB
:1002C000BF030008BF030008BF030008DFF810D019
:1002D00000F0EEF800480047D1FF0008AFF30080BF
:1002E000C8AD00242C4B19680868B0E8F04F80F3C3
:1002F0000988BFF36F8F4FF0000080F311887047BB
:100300000000000008480068006880F308884FF08B
:10031000000080F3148862B661B6BFF34F8FBFF35D
:100320006F8F00DF00BF00BF08ED00E0DFF80C00BA
:10033000016841F470010160704700BF88ED00E082
:10034000EFF30980BFF36F8F134B1A681EF0100F85
:1003500008BF20ED108A20E9F04F106009B44FF07B
:10036000500080F31188BFF34F8FBFF36F8F10F0F1
:1003700039FC4FF0000080F3118809BC1968086847
:10038000B0E8F04F1EF0100F08BFB0EC108A80F3F9
:100390000988BFF36F8F704774000024EFF3058066
:1003A000704700000648804706480047FEE7FEE722
:1003B000FEE7FEE7FEE7FEE7FEE7FEE7FEE7FEE715
:1003C00095B00008CD0200082DE9F05F0546002039
:1003D00092469B4688460646814640241BE02846B6
:1003E00041464746224600F053F853465A46C01A43
:1003F000914110D311461846224600F03AF82D1AC2
:1004000067EB01084F4622460120002100F031F839
:1004100017EB00094E41201EA4F10104DFDC484621
:1004200031462A464346BDE8F09F40EA01039B0758
:1004300003D009E008C9121F08C0042AFAD203E059
:1004400011F8013B00F8013B521EF9D27047D2B2BD
:1004500001E000F8012B491EFBD270470022F6E7AD
:1004600010B513460A4604461946FFF7F0FF20462A
:1004700010BD202A04DB203A00FA02F10020704768
:100480009140C2F1200320FA03F3194390407047D2
:10049000202A04DB203A21FA02F00021704721FAD9
:1004A00002F3D040C2F12002914008431946704740
:1004B000064C074D06E0E06840F0010394E80700B1
:1004C00098471034AC42F6D3FFF704FFD81A01085E
:1004D000F81A010870B58C1810F8015B15F00703C5
:1004E00001D110F8013B2A1106D110F8012B03E0CD
:1004F00010F8016B01F8016B5B1EF9D12B0705D4D5
:100500000023521E0DD401F8013BFAE710F8013B1D
:10051000CB1A921C03E013F8015B01F8015B521E39
:10052000F9D5A142D8D3002070BD00009FED201A5C
:10053000B5EE002A00EE012A9FED1E1ABDEEC20A9A
:10054000B5EEC02AF1EE10FA10EE100AB8BF01386D
:1005500000EE100A0020B8EEC00A32EE400A9FED0D
:10056000162A20EE010ABCEEC01A11EE101A30EE67
:10057000021AB0EB512F18BF002102EE101A41F2FF
:10058000D42000FE010AC0F60100B8EE422A00EBBA
:10059000810090ED011A30EE420AB7EE002A32EEE9
:1005A000402A20EE010A90ED001A02EE010A70477F
:1005B00083F9223E00000044000000C49FED1F1A92
:1005C00020EE010A9FED1F2ABDEEC01AB5EEC00A4B
:1005D000F1EE10FA11EE100AB8BF013801EE100A60
:1005E0000020B8EEC11A30EE410A9FED151A20EE38
:1005F000010ABCEEC01A11EE101A30EE021AB0EB6E
:10060000512F18BF002102EE101A41F2D42000FE33
:10061000010AC0F60100B8EE422A00EB810090ED1D
:10062000011A30EE420AB7EE002A32EE402A20EEDE
:10063000010A90ED001A02EE010A704783F9223E8A
:1006400000000044000000C410B501221146024819
:1006500004F03CFD10BD00000008025810B5002257
:100660000121024804F032FD10BD000000080258CC
:1006700010B501220821024804F028FD10BD000039
:100680000008025810B500220821024804F01EFD9F
:1006900010BD00000008025810B50446FFF7DEFF49
:1006A000922000F011FA0622C249122000F0ECF963
:1006B000FFF7CAFFC0480078002855D0BD484078F1
:1006C000000200B2BB4909780843BC49088094ED98
:1006D0000C0A0846B0F9000000EE900AF8EEE00AB5
:1006E000B74890ED001A60EE810A94ED081A10EEFA
:1006F000810A84ED000AAF48C078000200B2AD491B
:1007000089780843AD49088094ED0D0A0846B0F990
:10071000000000EE900AF8EEE00AA94890ED001AF9
:1007200060EE810A94ED081A10EE810A84ED010A48
:10073000A0484079000200B29E49097908439F49C8
:1007400008800846B0F9000000EE100AB8EEC00AB2
:100750009B48D0ED000A20EE200AD4ED080A20EED6
:10076000200A84ED020A50E092484078000200B26C
:10077000904909780843914908800846B0F900007B
:1007800000EE100AB8EEC00A8D48D0ED000A20EE47
:10079000200AD4ED080A20EE200A84ED000A8548DC
:1007A000C078000200B283498978084383490880F1
:1007B0000846B0F9000000EE100AB8EEC00A804802
:1007C000D0ED000A20EE200AD4ED080A20EE200A1F
:1007D00084ED010A77484079000200B27549097931
:1007E0000843764908800846B0F9000000EE100A78
:1007F000B8EEC00A7248D0ED000A20EE200AD4ED0F
:10080000080A20EE200A84ED020AFFF73BFF0822C7
:100810006849002000F038F9FFF72AFF65480078A2
:100820000F284FD164480078F0B36248C0780002C6
:1008300000B26049897808436049088094ED090A4C
:100840000846B0F9000000EE900AF8EEE00A5D48B4
:1008500090ED001A10EE810A84ED030A55484079A4
:10086000000200B25349097908435449088094EDC5
:100870000A0A0846B0F9000000EE900AF8EEE00A15
:10088000504890ED001A10EE810A84ED040A4948A0
:10089000C079000200B24749897908434749088076
:1008A00094ED0B0A084600E00DE0B0F9000000EE00
:1008B000900AF8EEE00A434890ED001A10EE810A23
:1008C00084ED050A44E03B48C078000200B2394993
:1008D00089780843394908800846B0F9000000EEDD
:1008E000100AB8EEC00A3748D0ED000A20EE200A00
:1008F00084ED030A2F484079000200B22D4909799E
:1009000008432E4908800846B0F9000000EE100A9E
:10091000B8EEC00A2B48D0ED000A20EE200A84ED84
:10092000040A2448C079000200B2224989790843A8
:10093000224908800846B0F9000000EE100AB8EE1F
:10094000C00A2048D0ED000A20EE200A84ED050AF6
:10095000FFF784FEA22000F0B7F8022215492220FA
:1009600000F092F8FFF770FE12480078C0001149BD
:10097000497840EA6110114908800846B0F9000042
:10098000B0F5806F05DB08460088A0F5006000B276
:1009900008800A48B0F9000000EE100AF8EEC00A1C
:1009A000B4EE001AB3EE070A00EE810A84ED070ADE
:1009B00010BD000064000024340000246C000024FA
:1009C000240000242800002470B504460D46224867
:1009D00004600020214908700EF0D2FD1F490978FB
:1009E00008431E4908700EF081FE1C49097808432F
:1009F0001A4908701DB11A4800F098F928E09FEDD7
:100A0000190A174880ED090A9FED170A80ED0A0AB6
:100A10009FED160A80ED0B0A9FED150A80ED0C0A7A
:100A20009FED140A80ED0D0A9FED130A80ED0E0A6A
:100A30009FED120A80ED0F0A90ED0F0ADFED100A0C
:100A400080EE801A80ED081A9FED0E0A80ED060AEE
:100A50000248007870BD0000700000242E000024C1
:100A6000CC080024F0A032BAB9F3AFBAB1EFBBBAE8
:100A70000B6F993E2A98933D000000007A841D4137
:100A8000C3F51C410000204270B506460C461546D1
:100A900046F0800000F018F806E0552000F014F849
:100AA0002070641C681EC5B2002DF6D170BD70B5F3
:100AB00004460D4644F0800000F006F8552000F092
:100AC00003F8287070BD000001B582B04FF47A7051
:100AD000012301AA02A900900348006807F08CFDD9
:100AE0009DF804000EBD00007000002470B505469E
:100AF0000C462846FFF7E8FF2046FFF7E5FF70BDEC
:100B0000D2ED020A92ED021AB6EE000A00EEC10A18
:100B1000D2ED030A92ED031A00EEC10AD0ED000AED
:100B200020EE200AD2ED010A92ED021A60EE810A4F
:100B300092ED001AD2ED031A41EE610A90ED011A0E
:100B400000EE810AD2ED010A92ED031A60EE810AED
:100B500092ED001AD2ED021A41EE210A90ED021A2E
:100B600000EE810AF0EE000A20EE200A81ED000A74
:100B700092ED010AD2ED020A20EE200AD2ED000A1F
:100B800092ED031A00EE810AD0ED000A60EE200A11
:100B900092ED011AD2ED011AB6EE000A01EE610AD9
:100BA000D2ED031A92ED032AB0EE401A01EEC21AFA
:100BB000D0ED011AB0EE600A01EE210AD2ED020A70
:100BC00092ED031A60EE810A92ED001AD2ED011A3D
:100BD00041EE610A90ED021A00EE810AF0EE000A81
:100BE00020EE200A81ED010A92ED010AD2ED030AFE
:100BF00020EE200AD2ED000A92ED021A00EEC10AA0
:100C0000D0ED000A20EE200AD2ED020A92ED031A7E
:100C100060EE810A92ED001AD2ED011A41EE210A2E
:100C200090ED011A00EE810A92ED011AD2ED011A3F
:100C3000F6EE000A41EE610A92ED021AD2ED021AB6
:100C400041EE610A90ED021A00EE810AF0EE000A10
:100C500020EE200A81ED020A704700BFFEE703463E
:100C6000042B15D007DC7BB1012B0ED0022B0DD04D
:100C7000032B12D10BE0202B0BD0212B0AD0222BDF
:100C800009D0232B09D107E008E007E006E005E0E2
:100C900004E003E002E001E000E000BF00BF00204C
:100CA000704700207047000010B500220449054835
:100CB0000BF0F3FF044903480BF0E0FF002010BDE8
:100CC000C4960024E8890024C48E002470B504462C
:100CD0000D46214603480BF0D1FF02480BF09AFF66
:100CE000002070BDE889002410B503460C460021A1
:100CF000084610BD2DE9F04104460D4600260A487D
:100D0000D0F8BC72D7F8140210B10120BDE8F08110
:100D10002A46214604480BF0C0FF03480CF070F847
:100D200006463046F2E70000E889002470B52DED54
:100D3000048B88B0044600200690079001F0ECF97F
:100D4000FE4880ED000A00BF01F0E6F9FB48D0ED57
:100D5000000A30EE600AF2EE040AB4EEE00AF1EEA8
:100D600010FA14DD9FEDF60A84ED090A9FEDF50AED
:100D700084ED0A0A9FEDF40A84ED0B0A9FEDF30A55
:100D800084ED0F0A9FEDF20A84ED060A5FE29FED03
:100D9000F10A01F07DF99FEDF00A84ED0F0A9FED55
:100DA000EE0A84ED090A9FEDEC0A84ED0A0A9FED34
:100DB000EA0A84ED0B0A002673E1FFF74FFC92204C
:100DC000FFF782FE062206A91220FFF75DFEFFF75D
:100DD0003BFC9DF81900000200B29DF8181040EA93
:100DE000010500EE105AB8EEC00ADC48D0ED000A4A
:100DF00020EE200A84ED000A9DF81B00000200B2DC
:100E00009DF81A1040EA010500EE105AB8EEC00A2B
:100E1000D248D0ED000A20EE200A84ED010A9DF8A8
:100E20001D00000200B29DF81C1040EA010500EE12
:100E3000105AB8EEC00AC948D0ED000A20EE200AC8
:100E400084ED020AD4ED000A60EEA00A94ED011AC6
:100E5000D4ED011A41EE210A94ED021AD4ED021AE2
:100E600041EE210AB0EE600A0EF041FBB0EE408A7E
:100E700094ED0F0A30EE080A84ED0F0AFFF702FC2A
:100E8000082206A90020FFF7FFFDFFF7F1FB9DF800
:100E900018000F2850D19DF81B00000200B29DF8E9
:100EA0001A1040EA010500EE105AB8EEC00AAC482C
:100EB000D0ED000A20EE200A84ED030A94ED090A21
:100EC000D4ED030A30EE200A84ED090A9DF81D00D6
:100ED000000200B29DF81C1040EA010500EE105A15
:100EE000B8EEC00A9E48D0ED000A20EE200A84ED3C
:100EF000040A94ED0A0AD4ED040A30EE200A84EDC7
:100F00000A0A9DF81F00000200B29DF81E1040EA78
:100F1000010500EE105AB8EEC00A9148D0ED000A63
:100F200020EE200A84ED050A94ED0B0AD4ED050AA3
:100F300030EE200A84ED0B0A06BBF0EE488AB0EED4
:100F4000489A002017E004F10C0101EB800191EDBB
:100F5000000A03A901EB800181ED000A04F10C01F4
:100F600001EB800191ED000A694601EB800181ED02
:100F7000000A411CC8B20328E5DB49E0B4EEE88A68
:100F8000F1EE10FA01DDF0EE488AB4EEC98AF1EE16
:100F900010FA01D2B0EE489A002037E004F10C01BB
:100FA00001EB800191ED000A03A901EB8001D1ED75
:100FB000000AB4EEE00AF1EE10FA0ADD04F10C01C9
:100FC00001EB800191ED000A03A901EB800181EDA5
:100FD000000A04F10C0101EB800191ED000A694661
:100FE00001EB8001D1ED000AB4EEE00AF1EE10FA57
:100FF0000AD204F10C0101EB800191ED000A69466F
:1010000001EB800181ED000A411CC8B20328C5DB59
:1010100038EEC90A534880ED000A002012E003A907
:1010200001EB800191ED000A694601EB8001D1EDF1
:10103000000A30EE600A4C4901EB800181ED000AA4
:10104000411CC8B20328EADB464890ED000AF6EEE0
:10105000000AB4EEE00AF1EE10FA1BDC424890ED13
:10106000000ADFED420AB4EEE00AF1EE10FA11DCFC
:1010700090ED010ADFED3D0AB4EEE00AF1EE10FA60
:1010800008DC90ED020ADFED390AB4EEE00AF1EE79
:1010900010FA00DD0AE09FED360A00F0F9FF701C3F
:1010A00086B2344800888642FFF687AE00BFD4ED92
:1010B0000F0A3048008800EE100AB8EE400A80EEB1
:1010C000801A84ED0F1A002015E004F1240101EBD1
:1010D0008001D1ED000A2749098800EE101AB8EE08
:1010E000400A80EE801A04F1240101EB800181EDB9
:1010F000001A411CC8B20328E7DBFFF7AFFAA220B1
:10110000FFF7E2FC022206A92220FFF7BDFCFFF751
:101110009BFA9DF81800C0009DF8191040EA61156F
:10112000B5F5806F02DBA5F5006005B200EE105A40
:10113000F8EEC00AB4EE001A1EE000005C000024C5
:10114000F0A032BAB9F3AFBAB1EFBBBA7A841D419D
:10115000000020420AD7A33B000000002400002426
:101160002800002430000024C00800249A99193E69
:101170006F12033A60000024B3EE070A00EE810A02
:1011800084ED060A7C480088401C00B27A49088039
:101190007A4890ED000AF6EE000AB4EEE00AF1EEAD
:1011A00010FA3FF7D1ADD4ED0F0A9FED751A70EE2E
:1011B000C10AB0EE600A0EF056FDF6EE000AB4EE7B
:1011C000E00AF1EE10FAECDC6E4890ED000A5FEDFB
:1011D000190AB4EEE00AF1EE10FAE2DC90ED010A31
:1011E0005FED1E0AB4EEE00AF1EE10FAD9DC90EDE4
:1011F000020A5FED220AB4EEE00AF1EE10FAD0DC4A
:10120000D4ED090AB0EE600A0EF02DFDDFED5E0AA6
:10121000B4EEE00AF1EE10FAC3DCD4ED0A0AB0EE47
:10122000600A0EF020FDDFED580AB4EEE00AF1EEA0
:1012300010FAB6DCD4ED0B0AB0EE600A0EF013FD26
:10124000DFED510AB4EEE00AF1EE10FAA9DC00BFBE
:1012500094ED0F0ADFED4D0A80EE801A84ED081A36
:10126000002680E0FFF7FAF99220FFF72DFC062216
:1012700006A91220FFF708FCFFF7E6F99DF8190010
:10128000000200B29DF8181040EA010500EE105A65
:10129000B8EEC00A3E48D0ED000A20EE200AD4ED98
:1012A000080A20EE200A84ED000A94ED0C0ADFED16
:1012B000390A20EE200AD4ED000A9FED371A00EE1D
:1012C000810A84ED0C0A9DF81B00000200B29DF813
:1012D0001A1040EA010500EE105AB8EEC00A2C4878
:1012E000D0ED000A20EE200AD4ED080A20EE200AF4
:1012F00084ED010A94ED0D0ADFED260A20EE200AA6
:10130000D4ED010A9FED241A00EE810A84ED0D0A46
:101310009DF81D00000200B29DF81C1040EA010576
:1013200000EE105AB8EEC00A1948D0ED000A20EEBF
:10133000200AD4ED080A20EE200A84ED020A94ED7A
:101340000E0ADFED140A20EE200AD4ED020A9FED0A
:10135000121A00EE810A84ED0E0A1FED7B0A00F0DE
:1013600097FE701C86B20D4800888642FFF67AAF61
:1013700008B0BDEC048B70BD3600002430000024A2
:10138000CDCC1C41C00800240AD7233CC3F51C4126
:1013900024000024CDCC4C3FCDCC4C3E6200002438
:1013A00000BF00F075F8FCE770B504460022032189
:1013B00004F178000EF075FC0022042120460FF0A5
:1013C000FBFC0022012104F1B0000EF06AFC0022B7
:1013D000022104F13C000FF0EFFC9FED260A2648A5
:1013E00080ED000A9FED230A80ED010A9FED230A9C
:1013F000234880ED400A9FED230A80ED440A002532
:101400000AE0B4F878207C20015B1F480EF00AFC4B
:1014100001200EF033FF6D1C0A2DF2DB002508E0E1
:101420002288218918480EF0FDFB01200EF026FFCE
:101430006D1C0A2DF4DB00250AE0B020025BB4F835
:10144000B41012480EF0EEFB01200EF017FF6D1CD9
:101450000A2DF2DB002509E0A28F4420015B0B4836
:101460000EF0E0FB01200EF009FF6D1C0A2DF3DBEE
:1014700070BD00006C43853D6C840024CDCCCCBE97
:101480002C830024CDCC4C3D4C030024EC030024E1
:1014900002E001200EF0F2FEFE4890F890000028D5
:1014A000F7D0FD48FFF780FFC7E3FC4AF949FA4847
:1014B0000EF0EEF900210FE0F84AD2ED070AB0EE87
:1014C000600AF74A02EB011008F089FEF54800EBCC
:1014D000810080ED000A491C0429EDDB04210FE0A6
:1014E000EE4AD2ED080AB0EE600AED4A02EB0110B6
:1014F00008F075FEEB4800EB810080ED000A491C06
:101500000829EDDBE54890ED070AD0ED080A30EE3A
:10151000200AB0EE001AC0EE010AB5EE000A60EE35
:10152000800A9FEDE11A80EE810ADFEDE00A30EEDD
:10153000600AD94880ED400A90ED3C0AD0ED3F0AA0
:1015400030EE600AD748D0ED000A20EE200AD248DB
:10155000D0ED3D0A90ED3B1ADFEDD51A51EE810A30
:10156000D04890ED011A01EE200ACB48D0ED400A98
:1015700090ED481A70EEC10ACA4890ED021A01EEC9
:10158000200AC548D0ED410A90ED491A70EEC10A13
:10159000C44890ED031A01EE200ABF4880ED010A0D
:1015A00090ED3C0AD0ED3F0A30EE600ABD48D0ED28
:1015B000040A20EE200AB848D0ED3D0A90ED3B1A0F
:1015C000DFEDBB1A51EE810AB64890ED051A01EE27
:1015D000200AB148D0ED400A90ED481A70EEC10AD9
:1015E000B04890ED061A01EE200AAB48D0ED410A52
:1015F00090ED491A70EEC10AAA4890ED071A01EE63
:10160000200AA54880ED100A90ED100ADFEDA90A26
:1016100030EEC00A80ED100A9E4890ED061AF0EEFA
:10162000410A9D4890ED4B1AB0EE410A09F0D6FFF1
:10163000A14880ED000A984890ED010A9E48D0ED3F
:10164000000A30EE200A944880ED010A90ED100A5D
:101650009948D0ED000A30EE200A8F4880ED100A3C
:10166000DFED960A9FED960A001D0EF0F3FDDFED0B
:10167000930A9FED930A884840300EF0EBFD8648B0
:1016800090ED430AD0ED4A0A30EE600A8D48D0ED65
:10169000000A20EE200A7F48D0ED040A8A4890ED27
:1016A000001A01EE200A7D4880ED060A7A4890F87B
:1016B0003601012809D0784890F83601022804D074
:1016C000754890F8360103287ED1734890F83601AA
:1016D000012855D1714890ED070ADFED7C0A70EEC4
:1016E000C00A7B4890ED000A7A4890ED001A01EE9E
:1016F000200A6A48D0ED090A774890ED001A01EEF9
:10170000200A664880ED040A90ED080ADFED6F0AB2
:1017100070EEC00A6E4890ED000A6E4890ED001A17
:1017200001EE200A5D48D0ED0A0A6B4890ED001AE0
:1017300001EE600A594880ED050A90ED070ADFEDD9
:10174000670AB4EEE00AF1EE10FA0DD290ED080A45
:10175000DFED620AB4EEE00AF1EE10FA04D260485E
:101760000068401C5E4908605D480068042806DB8C
:1017700000205B4908600220474981F8360128E1D2
:10178000454890F83601022857D1444890ED070AA1
:10179000DFED540A70EEC00A4D4890ED000A4D4846
:1017A00090ED001A01EE200A3C48D0ED090A4A48A3
:1017B00090ED001A01EE200A384880ED040A90ED01
:1017C000080ADFED480A00E0CDE070EEC00A4048AC
:1017D00090ED000A3F4890ED001A01EE200A2F48D4
:1017E000D0ED0A0A3C4890ED001A01EE600A2B4841
:1017F00080ED050A90ED070ADFED3B0AB4EEE00A42
:10180000F1EE10FA0DDD90ED080ADFED370AB4EEC7
:10181000E00AF1EE10FA04DD31480068401C30495E
:1018200008602F480068022806DB00202C49086069
:101830000320194981F83601CBE0174890F83601AA
:1018400003287DD1154890ED070ADFED280A30EE18
:10185000C00A2048D0ED000A20EE200A0F48D0ED43
:10186000090A1D4890ED001A01EE200A0B4880ED90
:10187000040A90ED080ADFED1D0A30EEC00A154893
:10188000D0ED000A20EE200A0448D0ED0A0A1248E2
:101890002EE00000FC8100242C8300246C840024B2
:1018A00024010024A4010024355E3A3D5C8F223FD0
:1018B0003333333F0000000004010024EC51383E74
:1018C000EC5138BE14010024180100240AD7233D2E
:1018D00010010024080100240C010024CDCC4C3D53
:1018E0001C0100249A99993E7B14AE3D0AD7233CF3
:1018F00090ED001A01EE600AFD4880ED050AFD48F2
:1019000090ED3F0A80ED3C0AF94890ED070ADFEDC3
:10191000FA0AB4EEE00AF1EE10FA0DD290ED080AE0
:10192000DFEDF50AB4EEE00AF1EE10FA04D2F34866
:101930000068401CF1490860F0480068022800E097
:1019400010E046DB0020ED4908609FEDED0AE94814
:1019500080ED440A9FEDEA0A80ED450A0420E5493E
:1019600081F8360135E0E34890ED440AE048D0EDD7
:10197000070A70EE600AE34890ED000AE24890ED35
:10198000001A01EE200ADA48D0ED090ADF4890ED8E
:10199000001A01EE200AD64880ED040AD54890EDE1
:1019A000440AD348D0ED080A70EE600AD54890ED9D
:1019B000000AD54890ED001A01EE200ACC48D0ED7F
:1019C0000A0AD24890ED001A01EE600AC84880ED7C
:1019D000050AC74890ED070ADFEDCD0AB4EEE00A2C
:1019E000F1EE10FA11DD90ED080ADFEDC90AB4EE50
:1019F000E00AF1EE10FA08DDBE4890F8360104283E
:101A000003D10020BB4981F83601BA4890F837016C
:101A1000F0BBB74890ED040ADFEDBE0AB4EEE00A71
:101A2000F1EE10FA16D290ED050ADFEDBA0AB4EE27
:101A3000E00AF1EE10FA0DD2AE4890F8380148B93C
:101A4000AC4890F83601012804D0AA4890F8360135
:101A5000022809D1A74890F83601032804D0A548E8
:101A600090F83601042817D11FED6E0AA14880EDC9
:101A7000010A1FED700A80ED100A1FED720A80ED59
:101A80003F0A90ED3F0A80ED3C0A90ED4B0A00E0E2
:101A900014E080ED420A1FE0954890ED040AD0ED75
:101AA000060A30EE200A80ED040A90ED050AD0ED1A
:101AB000060A30EE600A80ED050A0DE08D4890F8C8
:101AC0003701012808D11FED850A894880ED040AF5
:101AD0001FED880A80ED050A8648D0ED250AB0EE94
:101AE000600AFEF76BFD8248D0ED010AB8EE001ADD
:101AF00060EE810A20EE200AD0ED040A20EE200AD2
:101B000080ED020A7B48D0ED330AB0EE600AFEF7A2
:101B100055FD7748D0ED000AB0EE001A60EE810A5C
:101B200020EE200AD0ED050A20EE200A80ED030AFF
:101B300090ED030A5FEDA10A30EEC00A80ED030AC2
:101B40006C4890F83601012809D06A4890F83601AF
:101B5000022804D0674890F83601032810D1F0EE2F
:101B6000080AB8EE080A624808300EF073FBF0EE7F
:101B7000080AB8EE080A5E480C300EF06BFB0FE066
:101B8000F7EE000ABFEE000A594808300EF062FB7B
:101B9000F7EE000ABFEE000A55480C300EF05AFB73
:101BA000544890F83001012848D1514890ED020A7C
:101BB000B0EE402A5FEDC11A1FEDC21A5FEDC30AF5
:101BC0001FEDC40A032154480EF0C8FA484890EDAE
:101BD000030AB0EE402A5FEDC91A1FEDCA1A5FED85
:101BE000CB0A1FEDCC0A01214C480EF0B7FA414850
:101BF00090ED010AB0EE402A5FEDD21A1FEDD31A24
:101C00005FEDD40A1FEDD50A042143480EF02AFAED
:101C1000384890ED100AB0EE402A5FEDDA1A1FED59
:101C2000DB1A5FEDDC0A1FEDDD0A02213B480EF0F6
:101C300019FA3B4800680EF021FB56E02D4890F859
:101C40003001E8BB2B4890ED4B0A80ED420A1FEDB6
:101C5000E70A80ED430A1FEDDF0A80ED440A1FED1D
:101C6000EB0A80ED3F0A90ED3F0A80ED3C0A1FED44
:101C7000EF2A5FEDF01A1FEDF11A5FEDF20A1FED8A
:101C8000F30A032124480EF069FA1FEDF62A5FEDEE
:101C9000F71A1FEDF81A5FEDF90A1FEDFA0A012194
:101CA0001E480EF05BFA9FED1F2ADFED1E1A9FED16
:101CB0001D1ADFED1C0A9FED1B0A0421164800E0E7
:101CC00013E00EF0CFF99FED172ADFED161A9FED06
:101CD000151ADFED140A9FED130A02210F480EF0CA
:101CE000C1F90F4800680EF0C9FAFFF7DEBB00002B
:101CF0006C8400242C830024EC51383D1C0100240A
:101D00008FC2753D10010024080100240C0100243D
:101D1000AE47613DCDCCCC3D4C030024EC03002408
:101D2000F80000240000000010B5024801F0B0F9EE
:101D300010BD0000B405002410B5024801F0A8F958
:101D400010BD00002C06002410B5024801F0A0F9D7
:101D500010BD00008407002410B5024801F098F976
:101D600010BD0000FC0700240146374A0868904275
:101D700049D0354A18320868904244D0324A30324D
:101D8000086890423FD0304A4832086890423AD0C2
:101D90002D4A60320868904235D02B4A7832086864
:101DA000904230D0284A9032086890422BD0264A80
:101DB000A8320868904226D0244A0868904222D06F
:101DC000224A1832086890421DD0204A30320868F2
:101DD000904218D01D4A48320868904213D01B4ADE
:101DE0006032086890420ED0184A783208689042F3
:101DF00009D0164A90320868904204D0134AA8329B
:101E00000868904201D1012000E00020B0B10A78BA
:101E1000103A1823B2FBF3F000F007020C4B9A5C67
:101E2000CA65032805D90A686FF30902121D8A657D
:101E300003E00A686FF309028A6503E0086820F08E
:101E4000FF008865886D7047100002401004024052
:101E50001012010810B502682B4C0368A34222D06F
:101E6000294C14340368A3421DD0274C283403683E
:101E7000A34218D0244C3C340368A34213D0224C14
:101E800050340368A3420ED01F4C64340368A3424D
:101E900009D01D4C78340368A34204D01A4C8C340A
:101EA0000368A34201D1012300E000238BB1037832
:101EB000083B1424B3FBF4F1144B03EB81030366DA
:101EC000124B8033436601F01F040123A340836655
:101ED00018E00378103B1824B3FBF4F10C4B9A4242
:101EE00004D80B4BA83B9A4200D30831094B03EBB3
:101EF00081030366074B8033436601F01F0401230F
:101F0000A340836610BD00000854025800580258D0
:101F1000B8040240000802400179A9B3082940D85A
:101F2000204B02689A4222D01E4B143302689A4218
:101F30001DD01C4B283302689A4218D0194B3C33F1
:101F400002689A4213D0174B503302689A420ED05F
:101F5000144B643302689A4209D0124B78330268FA
:101F60009A4204D00F4B8C3302689A4201D101226D
:101F700000E000224AB14A1E0B4B03EB8202C2660C
:101F8000094A4032026708E00BE04A1E074B03EBA8
:101F90008202C266054A403202674A1E012393400C
:101FA000436770470854025800590258000902401C
:101FB000014600208A69D2B98A6A32B1012A0DD05D
:101FC000022A03D0032A10D10EE000BFCA6A02F031
:101FD0008072B2F1807F00D1012007E0CA6AB2F1BD
:101FE000C07F00D1012001E000E000BF36E08A6937
:101FF000B2F5005F1BD18A6A32B1012A07D0022AEA
:1020000003D0032A11D10AE000BF01200EE0CA6A02
:1020100002F08072B2F1807F00D1012006E0CA6A2E
:10202000B2F1C07F00D1012000E000BF16E08A6A53
:1020300032B1012A05D0022A04D0032A0CD103E0D0
:1020400000BF00BF012008E0CA6A02F08072B2F14E
:10205000807F00D1012000E000BF00BF704700007A
:1020600008B5084840680090074900980968884208
:1020700004D206480068401C0449086002490098E0
:10208000086008BD001000E0E8010024E40100241D
:102090000C494868F0EE400A00BF0A494968091A2D
:1020A00001EE101AF8EE411A074991ED001AB8EE48
:1020B000411A20EE811AF4EEC11AF1EE10FAECD3B7
:1020C00070470000001000E0D801002410B52DED8D
:1020D000028B82B004460E48406801902068019946
:1020E000081A00EE100AF8EE400A0A4890ED000ABD
:1020F000B8EE400A80EE801AB0EE418A0198206066
:10210000FFF7AEFFB0EE480A02B0BDEC028B10BD87
:10211000001000E0D801002410B52DED028B00F076
:1021200059F80F4890ED000AB8EE400A808800EE9A
:10213000900AF8EE600A9FED0B1A00EE810A08483B
:10214000C08800EE900AF8EE600A9FED071A00EED4
:10215000810AB0EE408AB0EE480ABDEC028B10BD99
:10216000D00100246F12833ABD37863512490968C1
:1021700041F08071104A11600021104A51601146EF
:10218000096841F0010111600D4941430D4A116098
:10219000114609684FF47A72B1FBF2F10A4A1160F4
:1021A00008490968064AB1FBF2F1084A11600021AA
:1021B000074A116070470000FCED00E0001000E0ED
:1021C00040420F00D8010024DC010024E00100247B
:1021D000E401002438B5294840680090FFF740FF2B
:1021E000274800684FF0FF31A0FB01310098181814
:1021F00041F10001234A03C2234800232149026818
:1022000003C9FEF7E1F8214A03C220480CC81E4862
:1022100000680024A2FB001503FB005002FB04022F
:102220001848D0E90030591A60EB0200184AC2E998
:102230000010164800681749086017480023144921
:10224000026803C9FEF7C0F81249888008468088F2
:102250001149096841430E48D0E90030591A60F12C
:1022600000000E4AC2E900100D4800230B49026825
:1022700003C9FEF7A9F80749C88038BD001000E07F
:10228000E4010024F0010024D8010024F801002416
:1022900000020024D0010024DC01002408020024F4
:1022A000E00100247047D2ED020A92ED021AB6EE68
:1022B000000A00EEC10AD2ED030A92ED031A00EE05
:1022C000C10AD0ED000A20EE200AD2ED010A92EDFB
:1022D000021A60EE810A92ED001AD2ED031A41EE65
:1022E000210A90ED011A00EE810AD2ED010A92ED69
:1022F000031A60EE810A92ED001AD2ED021A41EE45
:10230000610A90ED021A00EE810AF0EE000A20EE5A
:10231000200A81ED000A92ED010AD2ED020A20EEB8
:10232000200AD2ED000A92ED031A00EEC10AD0EDA8
:10233000000A60EE200A92ED011AD2ED011AB6EE03
:10234000000A01EE610AD2ED031A92ED032AB0EE03
:10235000401A01EEC21AD0ED011AB0EE600A01EE89
:10236000210AD2ED020A92ED031A60EE810A92ED83
:10237000001AD2ED011A41EE210A90ED021A00EE88
:10238000810AF0EE000A20EE200A81ED010A92EDAA
:10239000010AD2ED030A20EE200AD2ED000A92EDE6
:1023A000021A00EE810AD0ED000A20EE200AD2EDDA
:1023B000020A92ED031A60EE810A92ED001AD2ED44
:1023C000011A41EE610A90ED011A00EE810A92EDC8
:1023D000011AD2ED011AF6EE000A41EE610A92ED01
:1023E000021AD2ED021A41EE610A90ED021A00EED5
:1023F000810AF0EE000A20EE200A81ED020A704701
:1024000072B600BFFEE7000000B589B00020019061
:102410000290022003900120049000200590069075
:1024200001A9104801F0EBFE08B1FFF7E9FF002019
:1024300003460222114600900A4801F034FF08B119
:10244000FFF7DEFF00220121064801F03BFE08B144
:10245000FFF7D6FF034802F01DFD08B1FFF7D0FFDC
:1024600009B000BD4C03002410B5024802F034F856
:1024700010BD00004C03002400B589B0002001907D
:102480000120029002200390049000200590069005
:1024900001A9104801F0B3FE08B1FFF7B1FF002019
:1024A00003460222114600900A4801F0FCFE08B1E2
:1024B000FFF7A6FF00221021064801F003FE08B135
:1024C000FFF79EFF034802F0E5FC08B1FFF798FF15
:1024D00009B000BDEC03002410B5024801F0FCFF78
:1024E00010BD0000EC03002410B5024801F0F4FF19
:1024F00010BD00008C04002410B501464A6B08682A
:10250000D0F884004FF6FC74A04340EA82000C68C7
:10251000C4F884000868D0F8840020F47F04088F91
:1025200044EA00400C68C4F88400886B02440868E0
:10253000D0F888004FF6FC74A04340EA82000C6893
:10254000C4F888000868D0F8880020F4FE04888F5A
:1025500044EA00400C68C4F88800C86B02EB4002F3
:102560000868D0F8A0004FF6FC74A04340EA82004F
:102570000C68C4F8A0000868D0F8A00020F4FE049D
:102580004020405A44EA00400C68C4F8A000D1E959
:10259000104004FB00220868D0F8B0004FF6FC742D
:1025A000A04340EA82000C68C4F8B0000868D0F884
:1025B000B00020F4FE04B1F8480044EA00400C6882
:1025C000C4F8B000D1E9124004FB00220868D0F83A
:1025D000AC004FF6FC74A04340EA82000C68C4F8DB
:1025E000AC00D1E9144004FB00220868D0F8F000E8
:1025F0004FF6FC74A04340EA82000C68C4F8F00077
:102600000868D0F8F00020F47C14B1F8580044EACF
:1026100000400C68C4F8F000886D02EB40020868C6
:10262000D0F8C0004FF6FC74A04340EA82000C686A
:10263000C4F8C0000868D0F8C00020F47C14B1F8D9
:102640005C0044EA00400C68C4F8C0000868D0F898
:10265000C00020F07C5491F8600044EA00600C68EF
:10266000C4F8C0002A4C486B04EB8000C866CC6EEE
:10267000886B04EB80040C670C6FC86B04EBC00420
:102680004C67D1E9100460434C6F04EB80048C6705
:10269000D1E9120460438C6F04EB8004CC67D1E96C
:1026A00014046043CC6F04EB8004802044504458F1
:1026B000886D04EBC004842044508C6EC86D604368
:1026C0008424645804EB8004882044508C6E086E87
:1026D00060438824645804EB8004902044504058A0
:1026E0000C4CA04209D99831486840F0200048605D
:1026F000032001F89809012010BDCB6E02E00020F4
:1027000018601B1D902040589842F8D80020F3E72D
:1027100000AC0040FCD300402DE9F04105461446D2
:102720001E46D1F804C0BCF1000F0AD1D1F810C088
:10273000D1F808804CEA080CB1F800804CEA8843D4
:102740000BE0D1F810C04CF0804CD1F808804CEA76
:10275000080CD1F800804CEA080391F82080D1F8E9
:102760001CC04CEA086CD1F818804CEA080CD1F86F
:1027700014804CEA080CB1F80C804CEA0847D5F8F4
:1027800068C00CFB06FCD5F8848008EB8C02136053
:10279000121D1760121D002019E000F1030C14F83F
:1027A0000CC04FEA0C6800F1020C14F80CC048EAA7
:1027B0000C4800F1010C14F80CC048EA0C2C14F879
:1027C00000804CEA080CC2F800C0121D001DDFF8A2
:1027D0001480D1F80CC018F80CC08445DDD8BDE8D1
:1027E000F08100001812010870B50A480468001D45
:1027F0000568001D0668344454B108220649204685
:1028000007F0CEFC042204491031284607F0C8FC2A
:1028100070BD000000E8F11F8A0200242DE9F0419C
:10282000044602F059FC804614B90120BDE8F0814D
:1028300094F83500022808D08020606500BF002091
:1028400084F8340000BF0120F0E7FE492068884288
:1028500049D0FC4918312068884244D0F9493031C8
:10286000206888423FD0F7494831206888423AD0F2
:10287000F44960312068884235D0F24978312068C7
:10288000884230D0EF499031206888422BD0ED4902
:10289000A8312068884226D0EB492068884222D09F
:1028A000E9491831206888421DD0E7493031206855
:1028B000884218D0E44948312068884213D0E24960
:1028C0006031206888420ED0DF4978312068884224
:1028D00009D0DD4990312068884204D0DA49A83116
:1028E0002068884201D1012000E0002068B1206802
:1028F000006820F01E00216808602068406920F010
:10290000800021684861256806E02068006820F0A2
:102910000E00216808602568CA492068884270D086
:10292000C8491831206888426BD0C64930312068C8
:10293000884266D0C34948312068884261D0C14985
:102940006031206888425CD0BE4978312068884276
:1029500057D0BC4990312068884252D0B949A8313B
:10296000206888424DD0B8492068884249D0B6498D
:1029700018312068884244D0B349303120688842F9
:102980003FD0B1494831206888423AD0AE496031E1
:102990002068884235D0AC4978312068884230D0F0
:1029A000A9499031206888422BD0A749A8312068D6
:1029B000884226D0A5492068884222D0A3491431F4
:1029C000206888421DD0A14928312068884218D04B
:1029D0009E493C312068884213D09C495031206880
:1029E00088420ED0994964312068884209D09749BD
:1029F00078312068884204D094498C31206888421C
:102A000001D1012000E0002028B1206E006820F4F0
:102A10008070216E08608B492068884249D08949BE
:102A200018312068884244D0864930312068884275
:102A30003FD084494831206888423AD0814960318A
:102A40002068884235D07F4978312068884230D06C
:102A50007C499031206888422BD07A49A83120687F
:102A6000884226D078492068884222D07649183199
:102A7000206888421DD0744930312068884218D0BF
:102A8000714948312068884213D06F49603120680D
:102A900088420ED06C4978312068884209D06A4952
:102AA00090312068884204D06749A8312068884264
:102AB00006D12068006820F001002168086005E068
:102AC0002068006820F001002168086011E002F031
:102AD00003FBA0EB080005280BD92020606503202C
:102AE00084F8350000BF002084F8340000BF0120C6
:102AF0009CE6286800F001000028E8D151492068D0
:102B0000884249D04F4918312068884244D04D4905
:102B10003031206888423FD04A4948312068884295
:102B20003AD0484960312068884235D045497831EB
:102B30002068884230D043499031206888422BD0A9
:102B40004049A8312068884226D03F492068884201
:102B500022D03D491831206888421DD03A49303191
:102B60002068884218D0384948312068884213D0FC
:102B700035496031206888420ED033497831206869
:102B8000884209D0304990312068884204D02E49CB
:102B9000A8312068884201D1012000E0002040B126
:102BA000A66D94F85C0000F01F013F208840B060E3
:102BB00007E0A76D94F85C0000F01F010120884039
:102BC000786020492068884276D01E4918312068F4
:102BD000884271D01B493031206888426CD0194935
:102BE00048312068884267D01649603120688842A1
:102BF00062D014497831206888425DD01149903103
:102C00002068884258D00F49A8312068884253D0A4
:102C10000D49206888424FD00B49183120688842FE
:102C20004AD0094930312068884245D006494831A8
:102C30002068884240D004496031206888423BD0F7
:102C4000014905E0100002401004024008540258F7
:102C50007831206888422FD02549206888422BD0BF
:102C6000234918312068884226D0224920688842AA
:102C700022D020491431206888421DD01D492831B6
:102C80002068884218D01B493C312068884213D004
:102C900018495031206888420ED0164964312068A6
:102CA000884209D0134978312068884204D01149FC
:102CB0008C312068884201D1012000E0002068B1F9
:102CC000D4E919104860E06E40B1E06E006820F46D
:102CD0008070E16E0860D4E91C104860012084F81F
:102CE000350000BF002084F8340000BF00BF9DE520
:102CF000A00402400854025870B504460CB90120E3
:102D000070BD94F83500022803D080206065012052
:102D1000F6E7DC492068884249D0DA491831206852
:102D2000884244D0D7493031206888423FD0D549C5
:102D30004831206888423AD0D249603120688842C0
:102D400035D0D04978312068884230D0CD49903193
:102D5000206888422BD0CB49A8312068884226D0F1
:102D6000C9492068884222D0C74918312068884262
:102D70001DD0C54930312068884218D0C249483139
:102D80002068884213D0C0496031206888420ED044
:102D9000BD4978312068884209D0BB49903120680C
:102DA000884204D0B849A8312068884201D1012066
:102DB00000E00020F0B3042084F83500B149206819
:102DC00088424BD0AF4918312068884246D0AD497F
:102DD00030312068884241D0AA4948312068884271
:102DE0003CD0A84960312068884237D0A549783165
:102DF0002068884232D0A3499031206888422DD083
:102E0000A049A8312068884228D09F49206888427C
:102E100024D09D491831206888421FD09A4930310A
:102E2000206888421AD0984948312068884215D0D5
:102E3000954900E020E06031206888420ED0924938
:102E400078312068884209D08F49903120688842C3
:102E500004D08D49A8312068884206D120680068D6
:102E600020F001002168086009E12068006820F076
:102E700001002168086002E12068006820F00E006F
:102E8000216808607F492068884249D07D4918310F
:102E90002068884244D07B493031206888423FD046
:102EA00078494831206888423AD0764960312068B4
:102EB000884235D0734978312068884230D07149D2
:102EC0009031206888422BD06E49A8312068884212
:102ED00026D06D492068884222D06B49183120687D
:102EE00088421DD0684930312068884218D0664930
:102EF00048312068884213D0634960312068884295
:102F00000ED0614978312068884209D05E499031FD
:102F10002068884204D05C49A8312068884206D1E4
:102F20002068006820F001002168086005E0206842
:102F3000006820F00100216808605249206888423A
:102F400070D050491831206888426BD04D493031DB
:102F50002068884266D04B4948312068884261D059
:102F600048496031206888425CD046497831206801
:102F7000884257D0434990312068884252D0414915
:102F8000A831206888424DD03F492068884249D006
:102F90003D4918312068884244D03B49303120688F
:102FA00088423FD038494831206888423AD0364973
:102FB00060312068884235D03349783120688842B2
:102FC00030D031499031206888422BD02E49A83129
:102FD0002068884226D02D492068884222D02B497B
:102FE0001431206888421DD0284928312068884241
:102FF00018D026493C312068884213D023495031EB
:10300000206888420ED0214964312068884209D066
:103010001E4978312068884204D01C498C312068D0
:10302000884201D1012000E00020D8B1206E006864
:1030300020F48070216E0860A56D94F85C0000F0AB
:103040001F01012088406860D4E919104860E06ED3
:1030500040B1E06E006820F48070E16E0860D4E951
:103060001C104860012084F8350000BF002084F85F
:10307000340000BF206D10B12046216D884700202C
:103080003EE60000100002401004024008540258BE
:103090002DE9F84F044600200090FE4800684FF4E8
:1030A0001651B0FBF1FAA66DD4F858803768D8F8FD
:1030B0000090F9492068884249D0F74918312068C2
:1030C000884244D0F4493031206888423FD0F249E8
:1030D0004831206888423AD0EF4960312068884200
:1030E00035D0ED4978312068884230D0EA499031B6
:1030F000206888422BD0E849A8312068884226D031
:10310000E6492068884222D0E44918312068884284
:103110001DD0E24930312068884218D0DF4948315B
:103120002068884213D0DD496031206888420ED083
:10313000DA4978312068884209D0D849903120682E
:10314000884204D0D549A8312068884201D10120A5
:1031500000E0002000287DD094F85C0000F01F0102
:10316000082088403840002868D0CB492068884231
:1031700049D0C94918312068884244D0C649303105
:10318000206888423FD0C4494831206888423AD0FC
:10319000C14960312068884235D0BF497831206804
:1031A000884230D0BC499031206888422BD0BA493F
:1031B000A8312068884226D0B8492068884222D0A9
:1031C000B6491831206888421DD0B4493031206892
:1031D000884218D0B14948312068884213D0AF499D
:1031E0006031206888420ED0AC497831206888422E
:1031F00009D0AA4990312068884204D0A749A83153
:103200002068884204D12068006800F0040003E0D0
:103210002068006800F0080080B12068006820F095
:1032200004002168086094F85C0000F01F01082089
:103230008840B060606D40F00100606594F85C000B
:1032400000F01F01012088403840E8B3924920680F
:10325000884200E0B7E24BD08F491831206888429D
:1032600046D08D4930312068884241D08A49483162
:10327000206888423CD0884960312068884237D035
:10328000854978312068884232D08349903120685E
:1032900088422DD08049A8312068884228D07F49B3
:1032A0002068884224D07D491831206888421FD088
:1032B0007A493031206888421AD0784948312068EC
:1032C000884215D0754900E026E0603120688842C8
:1032D0000ED0724978312068884209D06F49903108
:1032E0002068884204D06D49A8312068884204D102
:1032F0002068406900F0800002E02068006800203B
:1033000050B194F85C0000F01F0101208840B060CB
:10331000606D40F00200606594F85C0000F01F01F1
:10332000042088403840E8B35B49206888424BD08D
:10333000594918312068884246D0574930312068B1
:10334000884241D054494831206888423CD0524993
:1033500060312068884237D04F49783120688842F0
:1033600032D04D499031206888422DD04A49A83149
:103370002068884228D049492068884224D047499B
:103380001831206888421FD0444930312068884273
:103390001AD0424948312068884215D03F496031EF
:1033A000206800E024E088420ED03C497831206853
:1033B000884209D0394990312068884204D0374981
:1033C000A8312068884204D12068006800F002001B
:1033D00002E020680068002050B194F85C0000F022
:1033E0001F0104208840B060606D40F004006065FB
:1033F00094F85C0000F01F01102088403840E8B3CA
:1034000025492068884251D02349183120688842D4
:103410004CD0214930312068884247D01E4948317C
:103420002068884242D01C496031206888423DD0E3
:10343000194978312068884238D01749903120687E
:10344000884233D01449A831206888422ED01349CD
:10345000206888422AD0114918312068884225D036
:103460000E4930312068884220D00C49483120680C
:1034700088421BD009496031206800E04DE0884255
:1034800014D006497831206888420FD00349903122
:10349000206805E01C0000241000024010040240D7
:1034A000884203D0FE492068884204D12068006821
:1034B00000F0080003E02068006800F0040060B33A
:1034C00094F85C0000F01F0110208840B060206874
:1034D000006800F4802080B12068006800F40020BB
:1034E00028B9206CC8B12046216C884715E0A06C33
:1034F00098B12046A16C88470FE02068006800F46E
:10350000807028B92068006820F0080021680860F1
:10351000206C10B12046216C884794F85C0000F0C4
:103520001F0120208840384000287DD0DD492068D8
:10353000884249D0DB4918312068884244D0D949B3
:103540003031206888423FD0D649483120688842CF
:103550003AD0D44960312068884235D0D149783199
:103560002068884230D0CF499031206888422BD0E3
:10357000CC49A8312068884226D0C949A83920689A
:10358000884221D0C6499039206888421CD0C4495D
:1035900078392068884217D0C1496039206888424C
:1035A00012D0BF494839206888420DD0BC49303913
:1035B0002068884208D0BA4918392068884203D068
:1035C000B7492068884204D12068006800F01000E4
:1035D00003E02068006800F0020028B394F85C0063
:1035E00000F01F0120208840B06094F835000428C6
:1035F0002DD12068006820F016002168086020683E
:10360000406920F0800021684861206C08B9A06CF6
:1036100028B12068006820F008002168086094F84C
:103620005C0000F01F0100E03FE03F208840B060F8
:10363000012084F8350000BF002084F8340000BF6A
:10364000206D10B12046216D8847BDE8F88F2068B5
:10365000006800F4802080B12068006800F4002039
:1036600028B9606C08B32046616C88471DE0E06BA8
:10367000D8B12046E16B884717E02068006800F465
:10368000807068B92068006820F010002168086028
:10369000012084F8350000BF002084F8340000BF0A
:1036A000E06B10B12046E16B8847606D00287AD04E
:1036B000606D00F00100E8B3042084F8350079491A
:1036C000206888424BD0774918312068884246D01C
:1036D000744930312068884241D0724948312068AD
:1036E00088423CD06F4960312068884237D06D49AC
:1036F00078312068884232D06A4990312068884207
:103700002DD06849A8312068884228D06449A8395A
:103710002068884223D062499039206888421ED0B0
:103720005F4978392068884219D05D49603920683E
:10373000884200E040E012D0594948392068884268
:103740000DD0574930392068884208D0544918397B
:103750002068884203D052492068884206D12068F8
:10376000006820F001002168086005E0206800681A
:1037700020F001002168086000BF0098401C009004
:10378000504500D905E02068006800F001000028DD
:10379000F3D100BF2068006800F0010020B10320D1
:1037A00084F8350003E00DE0012084F8350000BF07
:1037B000002084F8340000BFE06C002802D02046CE
:1037C000E16C8847D9E138492068884222D03649DF
:1037D0001431206888421DD033492831206888423E
:1037E00018D031493C312068884213D02E495031DD
:1037F000206888420ED02C4964312068884209D064
:10380000294978312068884204D027498C312068C2
:10381000884201D1012000E000200028D2D0206899
:10382000056894F85C0000F01F010420884000EA5D
:103830000900D8B305F00400C0B394F85C0000F0B0
:103840001F0104208840C8F8040005F4004080B13E
:1038500005F4803030B9A06C0028B3D02046A16CAC
:1038600088478AE1206C0028ACD02046216C88472C
:1038700083E105F02000E8BB0A492068884253D064
:1038800008491831206888424ED0064930312068F6
:10389000884249D0034948312068884244D006E034
:1038A000B804024010000240085402584FE0B449E6
:1038B00060312068884237D0B14978312068884229
:1038C00032D0AF499031206888422DD0AC49A83120
:1038D0002068884228D0AB492068884224D0A94972
:1038E0001831206888421FD0A649303120688842AC
:1038F0001AD000E025E0A34948312068884213D05F
:10390000A0496031206888420ED09E4978312068F5
:10391000884209D09B4990312068884204D0994957
:10392000A8312068884206D12068006820F008008D
:103930002168086005E02068006820F00400216824
:103940000860206C10B32046216C884715E194F87C
:103950005C0000F01F010220884000EA0900E8B383
:1039600005F00200D0B394F85C0000F01F010220C3
:103970008840C8F8040005F4004070B105F48030B8
:1039800028B9606C10B12046616C8847F5E0E06BA7
:10399000F0B32046E16B8847EFE005F02000C0BBA4
:1039A0007749206888424ED075491831206888428E
:1039B00049D0734930312068884244D07049483139
:1039C000206888423FD06E496031206888423AD0F2
:1039D0006B4978312068884235D000E04EE0684974
:1039E0009031206888422ED06549A83120688842ED
:1039F00029D064492068884225D06249183120685E
:103A0000884220D05F493031206888421BD001E0D5
:103A10006EE02DE05B4948312068884213D0594957
:103A20006031206888420ED056497831206888423B
:103A300009D0544990312068884204D05149A831B6
:103A40002068884206D12068006820F014002168B0
:103A5000086005E02068006820F00A00216808601E
:103A6000012084F8350000BF002084F8340000BF36
:103A7000E06BE8B32046E16B88477EE094F85C0099
:103A800000F01F010820884000EA090080B305F01B
:103A9000080068B33A49206888424BD03849183149
:103AA0002068884246D0364930312068884241D06B
:103AB00033494831206888423CD031496031206820
:103AC000884237D02E4978312068884232D02C493C
:103AD0009031206888422DD02949A8312068884239
:103AE00028D028492068884224D02649183100E08F
:103AF00043E0206888421DD0224930312068884246
:103B000018D0204948312068884213D01D496031BF
:103B1000206888420ED01B4978312068884209D03D
:103B2000184990312068884204D01649A83120688D
:103B3000884206D12068006820F01C0021680860D7
:103B400005E02068006820F00E002168086094F805
:103B50005C0000F01F0101208840C8F8040001202B
:103B6000606584F8350000BF002084F8340000BF91
:103B7000E06C10B12046E16C884700BF65E50000AD
:103B800010000240100402402DE9F041044601F00B
:103B9000A3FA804614B90120BDE8F081FE492068EF
:103BA000884249D0FC4918312068884244D0FA49FB
:103BB0003031206888423FD0F74948312068884238
:103BC0003AD0F54960312068884235D0F2497831E1
:103BD0002068884230D0F0499031206888422BD04C
:103BE000ED49A8312068884226D0EC4920688842F7
:103BF00022D0EA491831206888421DD0E749303187
:103C00002068884218D0E54948312068884213D09E
:103C1000E2496031206888420ED0E049783120685E
:103C2000884209D0DD4990312068884204D0DB49C0
:103C3000A8312068884201D1012000E0002000283E
:103C400073D0606A00B100BF022084F8350000BF65
:103C5000002084F8340000BFCF492068884249D052
:103C6000CD4918312068884244D0CB493031206892
:103C700088423FD0C8494831206888423AD0C64976
:103C800060312068884235D0C34978312068884245
:103C900030D0C1499031206888422BD0BE49A8312C
:103CA0002068884226D0BD492068884222D0BB497E
:103CB0001831206888421DD0B849303120688842C8
:103CC00018D0B64948312068884213D0B3496031D2
:103CD000206888420ED0B14978312068884209D0E6
:103CE000AE4990312068884204D0AC49A8312068A0
:103CF000884206D12068006820F001002168086031
:103D000005E02068006820F00100216808600DE0EF
:103D100001F0E2F9A0EB0800052807D92020606532
:103D2000032084F83500012036E769E02068006848
:103D300000F001000028EBD1206805689848054094
:103D4000D4E9020108432169084361690843A16974
:103D50000843E1690843216A08430543606A04286F
:103D600003D1D4E90B01084305436068292802D335
:103D700060682E2817D960683F2802D360684228FF
:103D800011D96068472802D3606848280BD9606859
:103D90004F2802D36068522805D96068742804D37C
:103DA0006068772801D8012000E0002008B145F4C0
:103DB0008015206805602068456925F00705606A60
:103DC0000543606A04280DD1A06A0543E06A48B142
:103DD0002046FEF7EDF828B140206065012084F808
:103DE0003500D9E6206845612046FDF7BDFF06464F
:103DF00094F85C0000F01F013F208840B0609EE016
:103E000068492068884222D0664914312068884277
:103E10001DD0644928312068884218D061493C315E
:103E20002068884213D05F495031206888420ED004
:103E30005C4964312068884209D05A497831206849
:103E4000884204D057498C312068884201D1012032
:103E500000E00020E0B353492068884222D0514955
:103E60001431206888421DD04E492831206888428C
:103E700018D04C493C312068884213D04949503110
:103E8000206888420ED0474964312068884209D0B2
:103E9000444978312068884204D042498C312068F6
:103EA000884201D1012000E0002000B100BF0220C3
:103EB00084F8350000BF002084F8340000BF20687B
:103EC000056839480540A068402802D1102106E065
:103ED0002EE0A068802801D1C10100E00021E06847
:103EE00041EAD001206941EAD001606941EAD0018C
:103EF000A06941EAD001E06941EAD001206A41EAC3
:103F0000101005432068056026492068401A1421D6
:103F1000B0FBF1F08000E0652046FDF725FF074685
:103F200094F85C0000F01F0101208840786006E0F2
:103F300040206065032084F8350001202CE61649F6
:103F4000206888427AD0144918312068884275D098
:103F5000114930312068884270D00F4948312068BB
:103F600088426BD00C4960312068884266D00A498B
:103F700078312068884261D00749903120688842B2
:103F80005CD00549A8312068884257D00349206891
:103F9000884253D0014909E0100002401004024059
:103FA0003F8010FE085402580F00FEFF18312068B1
:103FB000884243D03749206888423FD0354918317C
:103FC000206888423AD0334930312068884235D061
:103FD000304948312068884230D02E49603120680D
:103FE00088422BD02B4978312068884226D02A4934
:103FF0002068884222D028491431206888421DD088
:10400000254928312068884218D023493C3120684E
:10401000884213D020495031206888420ED01E4972
:1040200064312068884209D01B4978312068884271
:1040300004D019498C312068884201D1012000E068
:10404000002000B32046FDF705FFA068802801D1BD
:10405000002060602079216E0860D4E91910486062
:10406000606860B16068082809D82046FDF754FFF1
:104070000020E16E0860D4E91C10486003E00020D5
:10408000E0662067606700206065012084F83500E5
:10409000002081E5400402400854025870B50446EF
:1040A00001F01AF806462546681C10B1044800784D
:1040B000054400BF01F010F8801BA842FAD370BD80
:1040C0001800002430B5034693F89840012C01D025
:1040D000022C3ED11868806D084030B91868C06D58
:1040E00040F001001D68E8650EE01868806D08402A
:1040F000884206D11868C06D40F002001D68E8656E
:1041000002E003201D68E86501F4007030B1186812
:10411000D0F8E00010431D68C5F8E00001F48060AD
:1041200030B11868D0F8E40010431D68C5F8E40009
:1041300000BF1868406D0B4D0D4028431D68686531
:104140000948006840EA9170074D286000BF0020D0
:1041500030BDD3F89C0040F00200C3F89C00012061
:10416000F6E70000FFFFCF3F14A800402DE9F04123
:1041700004460E461746706800B900E000BF94F888
:104180009800022832D12068D0F8C00000F07C509E
:1041900040B9D4F89C0040F02000C4F89C000120F5
:1041A000BDE8F0812068D0F8C40000F4001038B1F8
:1041B000D4F89C0040F40070C4F89C000120EFE7A4
:1041C0002068D0F8C400C0F304452B463A46314677
:1041D0002046FEF7A1FA0120A8402168C1F8D000CE
:1041E0000120A840C4F894000020D9E7D4F89C002E
:1041F00040F00800C4F89C000120D1E77047F0B5FA
:10420000024692F89860012E01D0022E43D1C86870
:10421000072800D100BF086818BBC868072800D06D
:1042200000BFC86807280BD1088A4FF0605747EADB
:104230000040CF6940EA07208F6940EA07040AE09E
:10424000087A80070F7B40EAC7600F8A40EA074080
:104250004F6940EA0704D76E486807EB80031C608B
:1042600017E0C868072800D000BF0F7B086940EA44
:104270004774C868072801D18D6903E00F7A48693F
:1042800040EA8775176F486807EBC0031C601B1D69
:104290001D600020F0BDD2F89C0040F00200C2F882
:1042A0009C000120F6E770B50446049D94F8980040
:1042B00001280AD1080140EA820040EA430028436D
:1042C0002668C6F88000002070BDD4F89C0040F03D
:1042D0000400C4F89C000120F6E770477047000016
:1042E0002DE9F04304460D469C46002394F898803F
:1042F000B8F1020F74D1402D38D12068D0F8A00059
:1043000000F4FE0040B9D4F89C0040F02000C4F84E
:104310009C000120BDE8F0832068D0F8A40000F0E4
:104320007F0038B9D4F89C0040F48070C4F89C0039
:104330000120EFE72068D0F8A400C0F3006040B18E
:104340002068D0F8A0004FF00109B9EBD07F00D170
:1043500001232068D0F8A400C0F305200344606C5A
:104360005843D4F8749009EB80014BE0412D38D1CB
:104370002068D0F8B00000F4FE0038B9D4F89C00F2
:1043800040F02000C4F89C000120C3E72068D0F86A
:10439000B40000F07F0038B9D4F89C0040F480707D
:1043A000C4F89C000120B5E72068D0F8B400C0F341
:1043B000006040B12068D0F8B0004FF00109B9EBBF
:1043C000D07F00D101232068D0F8B400C0F30520CD
:1043D0000344E06C5843D4F8789009EB800111E075
:1043E0006DE0206DA84207D8D4F89C0040F0200072
:1043F000C4F89C0001208DE7606D6843D4F87C9080
:1044000009EB8001086800F080405060506820B9D6
:104410000868C0F38A40106003E0086820F060403C
:104420001060086800F000509060086800F00040DC
:104430001061091D088880B2D0610868C0F303408C
:10444000D060086800F480105061086800F4001023
:1044500090610868C0F3066010620868C00F50627F
:10446000091D0F46002603E0B85D0CF80600761C17
:10447000DFF85C90D06819F80000B042F4D8402D05
:1044800003D12068C0F8A83017E0412D03D120687F
:10449000C0F8B83011E0202D06D20120A840D4F891
:1044A0000090C9F8980008E005F01F09012000FA03
:1044B00009F0D4F80090C9F89C0000202AE7D4F84D
:1044C0009C0040F00800C4F89C00012022E7000096
:1044D00018120108704700002DE9F04F8DB0044616
:1044E000EF4800688707EE48001D006807EA8077FC
:1044F0002068006D00F470482068406D00EA0808EC
:104500002068006D00F00F092068406D00EA09097D
:104510002068006D00F0F00A2068406D00EA0A0A89
:104520002068006D00F0715B2068406D00EA0B0BA5
:104530002068006D00F060700C902068406D0C9950
:1045400008400C902068456D2068066DC5F300207A
:1045500070B1C6F3002058B100BF4FF480702168DD
:1045600008650020CE49086000BF2046FFF7B2FF73
:10457000C5F38020C8B1C6F38020B0B12068D0F860
:10458000DC000A902068D0F8E4000A9908400A90FC
:1045900000BF4FF48060216808650020C0490860B2
:1045A00000BF20460A9900F095FC67B100BFBD48E6
:1045B000384021680865B80FB949086000BF39461E
:1045C0002046FFF71BFEB8F1000F0ED000BFB54824
:1045D00008EA0000216808654FEA9870B049086051
:1045E00000BF4146204600F077FCB9F1000F0ED025
:1045F00000BFAC4809EA0000216808654FEA9970DD
:10460000A749086000BF4946204600F09BFBBAF16D
:10461000000F0ED000BFA3480AEA00002168086519
:104620004FEA9A709E49086000BF5146204600F04C
:10463000DDFBC5F3C02070B1C6F3C02058B100BF88
:104640004FF400602168086500209549086000BFAC
:10465000204600F042FCC5F34020C8B1C6F340201C
:10466000B0B12068D0F8D8000B902068D0F8E000F6
:104670000B9908400B9000BF4FF40070216808654B
:1046800000208749086000BF20460B9900F023FCFA
:10469000C5F3C04070B1C6F3C04058B100BF4FF47D
:1046A00000202168086500207D49086000BF204681
:1046B00000F046FBC5F3004070B1C6F3004058B1AE
:1046C00000BF4FF4803021680865002074490860FD
:1046D00000BF204600F0FDFBC5F3804070B1C6F37B
:1046E000804058B100BF4FF4802021680865002049
:1046F0006B49086000BF204600F0EAFBC5F340406C
:1047000088B1C6F3404070B100BF4FF4003021685B
:10471000086500206249086000BFD4F89C0040F0A2
:104720008000C4F89C000C9870B100BF5D490C98E3
:104730000840216808650C98800F5949086000BF3F
:1047400020460C99FFF7CAFDBBF1000F10D000BF47
:1047500054480BEA0000216808654FEA9B705049F5
:10476000086000BFD4F89C0040EA0B00C4F89C002D
:104770004D49206888427DD16068806800F0030060
:10478000002877D06068006A00F00F000990606828
:10479000406A0999084009906068006A00F030009A
:1047A00008906068406A0899084008906068006A4C
:1047B00000F4C07007906068406A0799084007904D
:1047C0006068006A00F4FC4006906068406A0699E0
:1047D000084006906068006A00F4F0200590606868
:1047E000406A0599084005906068406A02906068D8
:1047F000006A0190099830B1099861680862204602
:10480000099900F062FB089830B108986168086265
:104810002046089900F05BFB0298C0F38010A0B11D
:104820000198C0F3801080B16068C06B000C0490E8
:104830006068C06B00F03F00039040206168086230
:104840002046DDE9032100F041FB079830B10798CD
:10485000616808622046079900F036FB069840B16F
:10486000069861680862D4F89C0006990843C4F869
:104870009C0000E00AE0059840B105986168086274
:10488000D4F89C0005990843C4F89C00D4F89C0017
:1048900010B12046FFF721FD0DB0BDE8F08F0000FC
:1048A00010A80040FFFFCF3F00A0004070B594B0BB
:1048B00004464C22B34901A8FBF7B7FD14B9012007
:1048C00014B070BDB0492068884203D1206800F55B
:1048D00080706060A068B0F5407F00D100BF206CA0
:1048E00000B100BFA06C00B100BF206D00B100BFDF
:1048F000206E00B100BFD4E91710084400B100BF1A
:1049000094F8980028B9002084F89900204600F017
:104910003DF92068806920F010002168886100F06E
:10492000DBFB05460EE000F0D7FB401B0A2809D947
:104930009834606840F001006060032004F8980932
:104940000120BDE72068806900F008000828EAD04F
:104950002068806940F001002168886100F0BCFB9C
:1049600005460EE000F0B8FB401B0A2809D9983430
:10497000606840F001006060032004F8980901209D
:104980009EE72068806900F001000028EAD02068D6
:10499000806940F0020021688861207C012806D1EE
:1049A0002068806920F040002168886105E0206867
:1049B000806940F0400021688861607C012806D150
:1049C0002068806940F480402168886105E02068A3
:1049D000806920F4804021688861A07C012806D18C
:1049E0002068806920F480502168886105E0206893
:1049F000806940F48050216888612068806920F4D3
:104A00004070A1680843216888612068806920F0AF
:104A1000A400216888612068006920F010002168E6
:104A20000861E068012806D12068806940F0040030
:104A30002168886120E0E068F0B1E068022815D0C4
:104A40002068806940F080002168886120680069E2
:104A500040F0100021680861E06803280CD120684C
:104A6000806940F020002168886105E02068806945
:104A700040F0200021688861207E401E4106E069E8
:104A8000401E41EA0020216A491E0843A18A491EAE
:104A900040EA01402168C861A068B0F5407F0FD1AD
:104AA000A06A401EE16A491E40EA0121206B401EB7
:104AB00041EA0011A08C401E41EA00402168C86014
:104AC000206E38B12068D0F8C000616E08432168BC
:104AD000C1F8C000D4E91710084460B12068D0F8CC
:104AE000C80020F0070001AAA16E52F82110084367
:104AF0002168C1F8C800206C60B12068D0F8BC0003
:104B000020F0070001AA616C52F8211008432168C7
:104B1000C1F8BC00A06C68B12068D0F8BC0020F0DF
:104B2000700101AAE06C52F8200041EA00102168EF
:104B3000C1F8BC00206D68B12068D0F8BC0020F43A
:104B4000E06101AA606D52F8200041EA002021686E
:104B5000C1F8BC000C492068884205D160688068B3
:104B600020F0030061688860002044F8940FA06082
:104B700001202071943C2046FDF7BEFC06463046DD
:104B80009EE600002812010800A0004010B586B083
:104B90000446142101A8FBF761FC624920688842A1
:104BA0003CD161480068401C5F49086008460068C5
:104BB00001280DD100BF5D48006840F480705B495A
:104BC00008600846006800F48070009000BF00BFD5
:104BD00000BF56480C38006840F0080053490C39B3
:104BE00008600846006800F00800009000BF00BFA1
:104BF00003200190022002900020039004900920DD
:104C0000059001A94A4800F069F900220621132005
:104C100000F020FB132000F009FB81E045492068EB
:104C200088423CD140480068401C3F490860084623
:104C3000006801280DD100BF3C48006840F4807036
:104C40003A4908600846006800F48070009000BF90
:104C500000BF00BF35480C38006840F002003349FF
:104C60000C3908600846006800F00200009000BFA0
:104C700000BF602001900220029000200390049069
:104C80000920059001A92C4800F028F900220521EF
:104C9000142000F0DFFA142000F0C8FA40E02749A1
:104CA000206888423CD120480068401C1E490860AA
:104CB0000846006801280DD100BF1C48006840F478
:104CC00080701A4908600846006800F480700090FF
:104CD00000BF00BF00BF15480C38006840F0080056
:104CE00012490C3908600846006800F0080000907E
:104CF00000BF00BF4FF440500190022002900020FE
:104D0000039004900520059001A9094800F0E6F8F9
:104D1000002205219F2000F09DFA9F2000F086FAD6
:104D200006B010BD00A000400C000024EC44025866
:104D3000000C025800A400400004025800D40040B7
:104D40007047000070B504460D4605F001000028CC
:104D50003FD02049206888423BD140211E48FBF7C4
:104D60007DFB1D4B1D4A40212046FFF7B9FA1B4829
:104D70000068132802D0142829D113E017481649D7
:104D8000C26817480AF0AEFE16480068012808D12C
:104D90001548D0E90020521C40F100001249C1E939
:104DA000002015E00D480C49C2680D4878380AF01B
:104DB000E9FE0C480068012808D10B48D0E9021030
:104DC000491C40F10000084AC2E9021000E000BF9F
:104DD00000BF70BD00A00040E8840024C08400240F
:104DE000A4830024100200249085002470B504469A
:104DF0000D4605F0100000283FD020492068884269
:104E00003BD140211E48FBF729FB1D4B1D4A412188
:104E10002046FFF765FA1B480068112802D01228C7
:104E200029D113E017481649C26817480AF05AFEFC
:104E300016480068012808D11548D0E90020521C06
:104E400040F100001249C1E9002015E00D480C496D
:104E5000C2680D4874380AF095FE0C4800680128B5
:104E600008D10B48D0E90230591C40F10000084A33
:104E7000C2E9021000E000BF00BF70BD00A4004006
:104E80005085002428850024DC830024100200249F
:104E9000A0850024014691F8980001280CD1022039
:104EA00081F898000868806920F001000A68906124
:104EB0000020C1F89C007047D1F89C0040F004002D
:104EC000C1F89C000120F6E77047704770477047B3
:104ED000704770477047704770477047F8B5024693
:104EE0000B4600216D4DD2E001278F401E6806EA77
:104EF0000704002C72D01E7906F00306012E04D0A0
:104F00001E7906F00306022E13D190684F00032687
:104F1000BE40B0434F00DE68BE40304390605068F2
:104F200001268E40B0431E79C6F300168E403043F2
:104F300050601E7906F00306032E09D0D0684F009A
:104F40000326BE40B0434F009E68BE403043D06051
:104F50001E7906F00306022E13D1CF0802F12006B7
:104F600056F827004E07F70E0F26BE40B0434F07F6
:104F7000FF0E1E69BE403043CF0802F1200646F8FE
:104F8000270010684F000326BE40B0431E7906F08C
:104F900003064F00BE40304310605E6806F44036A2
:104FA000002E73D000BF3E4E366846F002063C4FDE
:104FB0003E603E46366806F00206009600BF00BF1F
:104FC000384E8F0856F827008E07370F0F26BE4041
:104FD000B043354EB24202D1002629E056E0334EAE
:104FE000B24201D1012623E0314EB24201D1022664
:104FF0001EE0304EB24201D1032619E02E4EB242DD
:1050000001D1042614E02D4EB24201D105260FE055
:105010002B4EB24201D106260AE02A4EB24201D1FD
:10502000072605E0284EB24201D1092600E00A26F3
:105030008F073F0FBE4030431A4E8F0846F82700B7
:105040004FF0B0463068A0435E6806F4801606B1A3
:1050500020434FF0B04630607068A0435E6806F4AD
:10506000001606B120434FF0B04670606868A04358
:105070005E6806F4003606B1204368602868A043E5
:105080005E6806F4803606B120432860491C1E681D
:10509000CE40002E7FF428AFF8BD000080000058FD
:1050A000F444025808040058000002580004025852
:1050B00000080258000C0258001002580014025850
:1050C00000180258001C0258002402580AB18161DD
:1050D00001E00B04836170470148006870470000DD
:1050E0001000002403480068034909780844014976
:1050F00008607047100000241800002410B5032039
:1051000000F0E6F802F0D2FA10490968C1F3032171
:105110000F4A515C01F01F0120FA01F40B480068AE
:1051200000F00F001146085C00F01F0024FA00F0A8
:1051300008490860084804600F2000F00FF808B123
:10514000012010BD00F05AF80020FAE71844025878
:105150009C120108200000241C000024F0B58BB034
:105160000446102C0AD2002221461C2000F072F8BE
:105170001C2000F05BF81D48046002E001200BB029
:10518000F0BD00BF1A48006840F0010018490860EF
:105190000846006800F00100019000BF00BF02A9AE
:1051A00003A802F003FA089E1EB902F05BFA054656
:1051B00002E002F057FA45000E48B5FBF0F0471E3A
:1051C0004FF080400C49086040F2E7310A48C16066
:1051D000476000210161816003F0B0FC18B9064806
:1051E00003F0E4FCCBE70120C9E700001400002431
:1051F000E844025840420F007408002408B500BF7C
:105200000948006840F00200074908600846006845
:1052100000F00200009000BF00BF00220F21901E8E
:1052200000F018F808BD0000F44402580146084692
:1052300000280DDB00BF00BF00F01F0301229A40D1
:1052400043099B0003F1E023C3F8002100BF00BF26
:1052500000BF70472DE9F05F80460D46164609F005
:1052600001FF074639462A46334601F00700C0F1E0
:10527000070ABAF1040F02D94FF0040A01E0C0F1A5
:10528000070AD14600F1040ABAF1070F02D24FF023
:10529000000A01E0A0F1030AD4464FF0010A0AFA1D
:1052A00009FAAAF1010A0AEA020A0AFA0CFA4FF00C
:1052B000010B0BFA0CFBABF1010B0BEA030B4AEAF7
:1052C0000B042146404609F0D5FEBDE8F09F0000E2
:1052D00000BF00F00702064B19684FF6FF031940A4
:1052E000044B0B4343EA0221014B196000BF704796
:1052F0000CED00E00000FA0501460A680120C1F843
:10530000D804002081F8CC04906940F000609061DE
:10531000506D024B18435065002070470300001089
:10532000704702461068416200207047F0B503469E
:1053300015461868446A21B944EA05401E68B062FF
:1053400019E01868806A04EB1044002208E018682D
:1053500000F5827050F8220004EB1044501CC2B2D9
:10536000481E9042F3D844EA0547186800F5827059
:105370004E1E40F826700020F0BD10B50446D4F84B
:10538000E00408F0C9F910BD70B504460D4605EB00
:10539000C50304F1140101EB8301CA682946D4F85E
:1053A000E00408F0B4F870BD70B504460D4605EB96
:1053B000C50304F5157101EB8301CA682946D4F8C9
:1053C000E00408F028F970BD10B50446D4F8E004F4
:1053D00008F0A5F910BD2DE9F04104460D4605F091
:1053E0008000802808D105F00F0000EBC00104F117
:1053F000140000EB810607E005F00F0000EBC00190
:1054000004F5157000EB81063146206809F0D6FBE3
:1054100007463846BDE8F08170B504460E4606F0F2
:10542000800080280AD106F00F0000EBC00104F1D3
:10543000140000EB81050120687009E006F00F0000
:1054400000EBC00104F5157000EB810500206870C9
:1054500006F00F00287000BF94F89404012801D1D1
:10546000022070BD012084F8940400BF2946206802
:1054700008F03CFF00BF002084F8940400BF00BF88
:10548000EFE770B504460E4606F00F00217988421A
:1054900001D9012070BD06F0800080280AD106F0F5
:1054A0000F0000EBC00104F1140000EB81050120A6
:1054B000687009E006F00F0000EBC00104F51570FC
:1054C00000EB8105002068700020A87006F00F0036
:1054D000287000BF94F89404012801D10220D9E774
:1054E000012084F8940400BF2946206809F0F8F8E8
:1054F00000BF002084F8940400BF00BFCAE7024642
:1055000001F00F0000EBC00302F5157000EB830003
:10551000406970472DE9F04705460E4690461F4604
:105520004FF0000906F0800080280AD106F00F0035
:1055300000EBC00105F1140000EB81040120607054
:1055400009E006F00F0000EBC00105F5157000EB57
:1055500081040020607006F00F002070C4F80880FD
:105560002771607808B120786083022F01D1002074
:10557000607100BF95F89404012802D10220BDE8B3
:10558000F087012085F8940400BF2146286808F0C0
:10559000B7FD00BF002085F8940400BF4846EEE741
:1055A0002DE9F04105460E461746984606F00F00D5
:1055B00000EBC00105F5157000EB8104E760C4F84D
:1055C000108000206061607006F00F002070A879E4
:1055D000012800D1E761AA792146286809F014F969
:1055E0000020BDE8F08170B504460D4605F00F00BF
:1055F0002179884201D9012070BD05F08000802802
:105600000AD105F00F0000EBC00104F1140000EB1B
:1056100081060120707007E005EBC50104F51570E7
:1056200000EB8106002070700120B07005F00F00C3
:10563000307000BF94F89404012801D10220DBE708
:10564000012084F8940400BF3146206809F08FF8E7
:1056500005F00F0028B9A17904F29C42206809F0F6
:1056600007F800BF002084F8940400BF00BFC3E720
:105670002DE9F04105460E461746984606F00F0004
:1056800000EBC00105F1140000EB8104E760C4F8F1
:105690001080002060610120607006F00F00207013
:1056A000A879012800D1E761AA792146286809F084
:1056B000ABF80020BDE8F0812DE9FE4F0446D4F898
:1056C00000B05E46206809F05BFB002874D12068BA
:1056D00009F095FB08B9BDE8FE8F40F60800805937
:1056E000C0F30D20C4F8D404206809F088FB00F052
:1056F0000200022805D12068406900F002002168FC
:105700004861206809F07BFB00F01000102845D1AB
:105710002068806920F0100021688861DBF8209003
:1057200009F00F0000EBC00104F5157000EB810AD1
:10573000C9F3434002281AD147F6F07009EA000085
:1057400030B3C9F30A125846DAF80C1009F05CFBC2
:10575000C9F30A11DAF80C000844CAF80C00C9F3BE
:105760000A11DAF814000844CAF8140010E0C9F36A
:10577000434006280CD1082204F29C41584609F007
:1057800043FBC9F30A11DAF814000844CAF81400FC
:105790002068806940F0100021688861206809F065
:1057A0002EFB00F40020B0F5002F7BD100252068EF
:1057B00009F0F5FA029072E003E3029800F00100AC
:1057C000002868D0E9B2206809F00CFB804608F098
:1057D000010048B1012106F5306000EB4510816001
:1057E0002946204604F0FEFF08F00800082809D1E9
:1057F000082106F5306000EB4510816029462046FF
:1058000004F0BEFF08F01000102805D1102106F5A5
:10581000306000EB4510816008F00200022824D1BE
:10582000DBF8140000F08000802807D140F6040067
:10583000805940F4806140F60400815105EBC501B8
:1058400004F5157000EB810A9AF80300012806D1CF
:1058500000208AF80300E9B2204600F0BDFA0221D8
:1058600006F5306000EB4510816008F0200020282C
:1058700005D1202106F5306000EB4510816008F469
:105880000050B0F5005F06D14FF4005106F53060CE
:1058900000EB451081606D1C029840080290029850
:1058A00000288AD1206809F0AAFA00F48020B0F517
:1058B000802F7DD1206809F068FA029000259AE0D7
:1058C000029800F00100002873D0E9B2206809F0C6
:1058D00070FA804608F00100F0B305F00F010120D6
:1058E0008840019040F634008159019821EA000077
:1058F00040F634018851012106F5106000EB451097
:105900008160A079012824D105EBC50104F11400C0
:1059100000EB810005EBC502C16804F1140000EB47
:1059200082008068014405EBC50204F1140000EB1D
:105930008200C1606DB905EBC50104F1140000EBF4
:105940008100006928B904F29C420121206808F016
:105950008FFEE9B2204600E001E0FFF715FD08F0F8
:105960000800082805D1082106F5106000EB451055
:10597000816008F01000102805D1102106F5106094
:1059800000EB4510816008F04000402805D140211F
:1059900006F5106000EB4510816008F00200022857
:1059A0001DD12946584609F0AEF905EBC50101E0C5
:1059B00025E01CE004F1140000EB810A9AF80300D2
:1059C000012806D100208AF80300E9B2204600F041
:1059D000FAF9022106F5106000EB4510816008F02D
:1059E0008000802803D12946204604F09DFF6D1CCD
:1059F000029840080290029800287FF461AF206866
:105A000009F0FDF900F00040B0F1004F1CD140F664
:105A10000400805920F0010140F60400815194F8FF
:105A2000CC04012807D1002084F8CC0400212046B2
:105A3000FFF776FC02E0204600F0D6FA20684069C5
:105A400000F0004021684861206809F0D8F900F4AE
:105A50000060B0F5006F0ED140F60800805900F0EC
:105A6000010010B1204600F017FB2068406900F4E7
:105A7000006021684861206809F0C1F900F0006009
:105A8000B0F1006F19D12068406900F00060216812
:105A9000486194F8CC0468B9012084F8CC042068EB
:105AA000406DC0F38300C4F8D00401212046FFF705
:105AB00037FC02E0204600F0EFFA206809F09FF979
:105AC00000F48050B0F5805F7ED140F6040080592C
:105AD00020F0010140F6040081511021206809F0F6
